{
  "_format": "hh-sol-artifact-1",
  "contractName": "CrowdfundingTokenized",
  "sourceName": "contracts/CrowdfundingTokenized.sol",
  "abi": [
    {
      "inputs": [],
      "name": "ReentrancyGuardReentrantCall",
      "type": "error"
    },
    {
      "anonymous": false,
      "inputs": [
        {
          "indexed": true,
          "internalType": "uint256",
          "name": "campaignId",
          "type": "uint256"
        }
      ],
      "name": "CampaignCancelled",
      "type": "event"
    },
    {
      "anonymous": false,
      "inputs": [
        {
          "indexed": true,
          "internalType": "uint256",
          "name": "campaignId",
          "type": "uint256"
        },
        {
          "indexed": true,
          "internalType": "address",
          "name": "owner",
          "type": "address"
        },
        {
          "indexed": true,
          "internalType": "address",
          "name": "token",
          "type": "address"
        }
      ],
      "name": "CampaignCreated",
      "type": "event"
    },
    {
      "anonymous": false,
      "inputs": [
        {
          "indexed": true,
          "internalType": "uint256",
          "name": "campaignId",
          "type": "uint256"
        },
        {
          "indexed": true,
          "internalType": "address",
          "name": "investor",
          "type": "address"
        },
        {
          "indexed": false,
          "internalType": "uint256",
          "name": "amount",
          "type": "uint256"
        },
        {
          "indexed": false,
          "internalType": "uint256",
          "name": "mintedTokens",
          "type": "uint256"
        }
      ],
      "name": "DonationReceived",
      "type": "event"
    },
    {
      "anonymous": false,
      "inputs": [
        {
          "indexed": true,
          "internalType": "uint256",
          "name": "campaignId",
          "type": "uint256"
        },
        {
          "indexed": true,
          "internalType": "uint256",
          "name": "milestoneId",
          "type": "uint256"
        },
        {
          "indexed": false,
          "internalType": "uint256",
          "name": "amount",
          "type": "uint256"
        }
      ],
      "name": "MilestoneReleased",
      "type": "event"
    },
    {
      "anonymous": false,
      "inputs": [
        {
          "indexed": true,
          "internalType": "uint256",
          "name": "campaignId",
          "type": "uint256"
        },
        {
          "indexed": true,
          "internalType": "uint256",
          "name": "milestoneId",
          "type": "uint256"
        },
        {
          "indexed": true,
          "internalType": "address",
          "name": "investor",
          "type": "address"
        },
        {
          "indexed": false,
          "internalType": "uint256",
          "name": "weight",
          "type": "uint256"
        }
      ],
      "name": "MilestoneVoted",
      "type": "event"
    },
    {
      "anonymous": false,
      "inputs": [
        {
          "indexed": true,
          "internalType": "uint256",
          "name": "campaignId",
          "type": "uint256"
        },
        {
          "indexed": true,
          "internalType": "address",
          "name": "investor",
          "type": "address"
        },
        {
          "indexed": false,
          "internalType": "uint256",
          "name": "amount",
          "type": "uint256"
        }
      ],
      "name": "Refunded",
      "type": "event"
    },
    {
      "inputs": [
        {
          "internalType": "uint256",
          "name": "",
          "type": "uint256"
        }
      ],
      "name": "campaigns",
      "outputs": [
        {
          "internalType": "address payable",
          "name": "owner",
          "type": "address"
        },
        {
          "internalType": "string",
          "name": "title",
          "type": "string"
        },
        {
          "internalType": "string",
          "name": "description",
          "type": "string"
        },
        {
          "internalType": "uint256",
          "name": "target",
          "type": "uint256"
        },
        {
          "internalType": "uint256",
          "name": "deadline",
          "type": "uint256"
        },
        {
          "internalType": "uint256",
          "name": "amountCollected",
          "type": "uint256"
        },
        {
          "internalType": "string",
          "name": "image",
          "type": "string"
        },
        {
          "internalType": "address",
          "name": "token",
          "type": "address"
        },
        {
          "internalType": "string",
          "name": "tokenSymbol",
          "type": "string"
        },
        {
          "internalType": "string",
          "name": "tokenImage",
          "type": "string"
        },
        {
          "internalType": "uint256",
          "name": "tokensPerEth",
          "type": "uint256"
        },
        {
          "internalType": "bool",
          "name": "cancelled",
          "type": "bool"
        }
      ],
      "stateMutability": "view",
      "type": "function"
    },
    {
      "inputs": [
        {
          "internalType": "uint256",
          "name": "_id",
          "type": "uint256"
        }
      ],
      "name": "cancelCampaign",
      "outputs": [],
      "stateMutability": "nonpayable",
      "type": "function"
    },
    {
      "inputs": [
        {
          "internalType": "string",
          "name": "_title",
          "type": "string"
        },
        {
          "internalType": "string",
          "name": "_description",
          "type": "string"
        },
        {
          "internalType": "uint256",
          "name": "_target",
          "type": "uint256"
        },
        {
          "internalType": "uint256",
          "name": "_deadline",
          "type": "uint256"
        },
        {
          "internalType": "string",
          "name": "_image",
          "type": "string"
        },
        {
          "internalType": "address",
          "name": "_token",
          "type": "address"
        },
        {
          "internalType": "string",
          "name": "_tokenSymbol",
          "type": "string"
        },
        {
          "internalType": "string",
          "name": "_tokenImage",
          "type": "string"
        },
        {
          "internalType": "uint256",
          "name": "_tokensPerEth",
          "type": "uint256"
        },
        {
          "internalType": "string[]",
          "name": "_milestoneTitles",
          "type": "string[]"
        },
        {
          "internalType": "uint256[]",
          "name": "_milestoneAmounts",
          "type": "uint256[]"
        }
      ],
      "name": "createCampaign",
      "outputs": [
        {
          "internalType": "uint256",
          "name": "",
          "type": "uint256"
        }
      ],
      "stateMutability": "nonpayable",
      "type": "function"
    },
    {
      "inputs": [
        {
          "internalType": "string",
          "name": "_title",
          "type": "string"
        },
        {
          "internalType": "string",
          "name": "_description",
          "type": "string"
        },
        {
          "internalType": "uint256",
          "name": "_target",
          "type": "uint256"
        },
        {
          "internalType": "uint256",
          "name": "_deadline",
          "type": "uint256"
        },
        {
          "internalType": "string",
          "name": "_image",
          "type": "string"
        },
        {
          "internalType": "string",
          "name": "_tokenName",
          "type": "string"
        },
        {
          "internalType": "string",
          "name": "_tokenSymbol",
          "type": "string"
        },
        {
          "internalType": "string",
          "name": "_tokenImage",
          "type": "string"
        },
        {
          "internalType": "uint256",
          "name": "_tokensPerEth",
          "type": "uint256"
        },
        {
          "internalType": "string[]",
          "name": "_milestoneTitles",
          "type": "string[]"
        },
        {
          "internalType": "uint256[]",
          "name": "_milestoneAmounts",
          "type": "uint256[]"
        }
      ],
      "name": "createCampaignWithToken",
      "outputs": [
        {
          "internalType": "uint256",
          "name": "",
          "type": "uint256"
        }
      ],
      "stateMutability": "nonpayable",
      "type": "function"
    },
    {
      "inputs": [
        {
          "internalType": "uint256",
          "name": "_id",
          "type": "uint256"
        }
      ],
      "name": "donateToCampaign",
      "outputs": [],
      "stateMutability": "payable",
      "type": "function"
    },
    {
      "inputs": [
        {
          "internalType": "uint256",
          "name": "_id",
          "type": "uint256"
        }
      ],
      "name": "getCampaign",
      "outputs": [
        {
          "internalType": "address",
          "name": "owner",
          "type": "address"
        },
        {
          "internalType": "string",
          "name": "title",
          "type": "string"
        },
        {
          "internalType": "string",
          "name": "description",
          "type": "string"
        },
        {
          "internalType": "uint256",
          "name": "target",
          "type": "uint256"
        },
        {
          "internalType": "uint256",
          "name": "deadline",
          "type": "uint256"
        },
        {
          "internalType": "uint256",
          "name": "amountCollected",
          "type": "uint256"
        },
        {
          "internalType": "string",
          "name": "image",
          "type": "string"
        },
        {
          "internalType": "address",
          "name": "token",
          "type": "address"
        },
        {
          "internalType": "string",
          "name": "tokenSymbol",
          "type": "string"
        },
        {
          "internalType": "string",
          "name": "tokenImage",
          "type": "string"
        },
        {
          "internalType": "uint256",
          "name": "tokensPerEth",
          "type": "uint256"
        },
        {
          "internalType": "bool",
          "name": "cancelled",
          "type": "bool"
        }
      ],
      "stateMutability": "view",
      "type": "function"
    },
    {
      "inputs": [],
      "name": "getCampaigns",
      "outputs": [
        {
          "internalType": "uint256[]",
          "name": "ids",
          "type": "uint256[]"
        }
      ],
      "stateMutability": "view",
      "type": "function"
    },
    {
      "inputs": [
        {
          "internalType": "uint256",
          "name": "_id",
          "type": "uint256"
        }
      ],
      "name": "getDonators",
      "outputs": [
        {
          "internalType": "address[]",
          "name": "",
          "type": "address[]"
        },
        {
          "internalType": "uint256[]",
          "name": "",
          "type": "uint256[]"
        }
      ],
      "stateMutability": "view",
      "type": "function"
    },
    {
      "inputs": [
        {
          "internalType": "uint256",
          "name": "_id",
          "type": "uint256"
        },
        {
          "internalType": "address",
          "name": "_investor",
          "type": "address"
        }
      ],
      "name": "getInvestorTokenEarnings",
      "outputs": [
        {
          "internalType": "uint256",
          "name": "",
          "type": "uint256"
        }
      ],
      "stateMutability": "view",
      "type": "function"
    },
    {
      "inputs": [
        {
          "internalType": "uint256",
          "name": "_id",
          "type": "uint256"
        }
      ],
      "name": "getMilestones",
      "outputs": [
        {
          "components": [
            {
              "internalType": "string",
              "name": "title",
              "type": "string"
            },
            {
              "internalType": "uint256",
              "name": "amount",
              "type": "uint256"
            },
            {
              "internalType": "uint256",
              "name": "voteWeight",
              "type": "uint256"
            },
            {
              "internalType": "bool",
              "name": "released",
              "type": "bool"
            }
          ],
          "internalType": "struct CrowdfundingTokenized.Milestone[]",
          "name": "",
          "type": "tuple[]"
        }
      ],
      "stateMutability": "view",
      "type": "function"
    },
    {
      "inputs": [],
      "name": "numberOfCampaigns",
      "outputs": [
        {
          "internalType": "uint256",
          "name": "",
          "type": "uint256"
        }
      ],
      "stateMutability": "view",
      "type": "function"
    },
    {
      "inputs": [
        {
          "internalType": "uint256",
          "name": "_id",
          "type": "uint256"
        }
      ],
      "name": "refund",
      "outputs": [],
      "stateMutability": "nonpayable",
      "type": "function"
    },
    {
      "inputs": [
        {
          "internalType": "uint256",
          "name": "_id",
          "type": "uint256"
        },
        {
          "internalType": "uint256",
          "name": "_milestoneId",
          "type": "uint256"
        }
      ],
      "name": "releaseMilestone",
      "outputs": [],
      "stateMutability": "nonpayable",
      "type": "function"
    },
    {
      "inputs": [
        {
          "internalType": "uint256",
          "name": "_id",
          "type": "uint256"
        },
        {
          "internalType": "uint256",
          "name": "_milestoneId",
          "type": "uint256"
        }
      ],
      "name": "voteMilestone",
      "outputs": [],
      "stateMutability": "nonpayable",
      "type": "function"
    }
  ],
  "bytecode": "0x608060405234801561001057600080fd5b5060017f9b779b17422d0df92223018b32b4d1fa46e071723d6817e2486d003becc55f0055613835806100446000396000f3fe608060405260043610620000ef5760003560e01c806345598b4a1162000089578063a6b036331162000060578063a6b036331462000299578063c8b24a4d14620002c0578063d4b640db14620002e5578063dbaf0910146200030a57600080fd5b806345598b4a146200022a5780635598f8cc146200024f578063a4e9e9ba146200027457600080fd5b8063278ecde111620000ca578063278ecde114620001935780632dafd84814620001ba57806342a4fda814620001df57806342c549c014620001f657600080fd5b806307ca140d14620000f45780630fa91fa9146200011f578063141961bc1462000154575b600080fd5b3480156200010157600080fd5b506200010c60005481565b6040519081526020015b60405180910390f35b3480156200012c57600080fd5b50620001446200013e3660046200218e565b6200032f565b60405162000116929190620021e6565b3480156200016157600080fd5b5062000179620001733660046200218e565b62000402565b604051620001169c9b9a9998979695949392919062002293565b348015620001a057600080fd5b50620001b8620001b23660046200218e565b62000749565b005b348015620001c757600080fd5b506200010c620001d936600462002538565b6200099a565b620001b8620001f03660046200218e565b62000a96565b3480156200020357600080fd5b506200021b620002153660046200218e565b62000d0b565b604051620001169190620026b9565b3480156200023757600080fd5b50620001b8620002493660046200218e565b62000e42565b3480156200025c57600080fd5b50620001796200026e3660046200218e565b62000f4d565b3480156200028157600080fd5b506200010c6200029336600462002774565b620012ee565b348015620002a657600080fd5b50620002b1620013af565b604051620001169190620027a7565b348015620002cd57600080fd5b506200010c620002df366004620027c3565b62001438565b348015620002f257600080fd5b50620001b86200030436600462002877565b6200145f565b3480156200031757600080fd5b50620001b86200032936600462002877565b620016fd565b600081815260026020908152604080832060038352928190208354825181850281018501909352808352606094859490939184918301828280156200039e57602002820191906000526020600020905b81546001600160a01b031681526001909101906020018083116200037f575b5050505050915080805480602002602001604051908101604052809291908181526020018280548015620003f257602002820191906000526020600020905b815481526020019060010190808311620003dd575b5050505050905091509150915091565b6001602081905260009182526040909120805491810180546001600160a01b039093169262000431906200289a565b80601f01602080910402602001604051908101604052809291908181526020018280546200045f906200289a565b8015620004b05780601f106200048457610100808354040283529160200191620004b0565b820191906000526020600020905b8154815290600101906020018083116200049257829003601f168201915b505050505090806002018054620004c7906200289a565b80601f0160208091040260200160405190810160405280929190818152602001828054620004f5906200289a565b8015620005465780601f106200051a5761010080835404028352916020019162000546565b820191906000526020600020905b8154815290600101906020018083116200052857829003601f168201915b5050505050908060030154908060040154908060050154908060060180546200056f906200289a565b80601f01602080910402602001604051908101604052809291908181526020018280546200059d906200289a565b8015620005ee5780601f10620005c257610100808354040283529160200191620005ee565b820191906000526020600020905b815481529060010190602001808311620005d057829003601f168201915b505050600784015460088501805494956001600160a01b039092169491935091506200061a906200289a565b80601f016020809104026020016040519081016040528092919081815260200182805462000648906200289a565b8015620006995780601f106200066d5761010080835404028352916020019162000699565b820191906000526020600020905b8154815290600101906020018083116200067b57829003601f168201915b505050505090806009018054620006b0906200289a565b80601f0160208091040260200160405190810160405280929190818152602001828054620006de906200289a565b80156200072f5780601f1062000703576101008083540402835291602001916200072f565b820191906000526020600020905b8154815290600101906020018083116200071157829003601f168201915b50505050600a830154600b9093015491929160ff1690508c565b6200075362001a5a565b6000818152600160209081526040808320600583528184203385529092529091205481546001600160a01b0316620007a85760405162461bcd60e51b81526004016200079f90620028d6565b60405180910390fd5b600b82015460ff16620007f75760405162461bcd60e51b815260206004820152601660248201527510d85b5c185a59db881b9bdd0818d85b98d95b1b195960521b60448201526064016200079f565b600081116200083b5760405162461bcd60e51b815260206004820152600f60248201526e27379031b7b73a3934b13aba34b7b760891b60448201526064016200079f565b600083815260066020908152604080832033845290915290205460ff16156200089a5760405162461bcd60e51b815260206004820152601060248201526f105b1c9958591e481c99599d5b99195960821b60448201526064016200079f565b6000838152600660209081526040808320338085529252808320805460ff191660011790555183908381818185875af1925050503d8060008114620008fc576040519150601f19603f3d011682016040523d82523d6000602084013e62000901565b606091505b5050905080620009445760405162461bcd60e51b815260206004820152600d60248201526c1499599d5b990819985a5b1959609a1b60448201526064016200079f565b604051828152339085907f7ca5472b7ea78c2c0141c5a12ee6d170cf4ce8ed06be3d22c8252ddfc7a6a2c49060200160405180910390a3505050620009976001600080516020620037e083398151915255565b50565b600080875111620009e45760405162461bcd60e51b8152602060048201526013602482015272151bdad95b881b985b59481c995c5d5a5c9959606a1b60448201526064016200079f565b600086511162000a2f5760405162461bcd60e51b8152602060048201526015602482015274151bdad95b881cde5b589bdb081c995c5d5a5c9959605a1b60448201526064016200079f565b600087873060405162000a429062002180565b62000a509392919062002902565b604051809103906000f08015801562000a6d573d6000803e3d6000fd5b50905062000a858d8d8d8d8d868d8d8d8d8d62001a79565b9d9c50505050505050505050505050565b62000aa062001a5a565b600081815260016020526040902080546001600160a01b031662000ad85760405162461bcd60e51b81526004016200079f90620028d6565b600b81015460ff161562000b005760405162461bcd60e51b81526004016200079f9062002944565b8060040154421062000b465760405162461bcd60e51b815260206004820152600e60248201526d10d85b5c185a59db88195b99195960921b60448201526064016200079f565b662386f26fc1000034101562000b9f5760405162461bcd60e51b815260206004820152601c60248201527f446f6e6174696f6e206d757374206265203e3d20302e3031204554480000000060448201526064016200079f565b60008281526002602090815260408083208054600181810183559185528385200180546001600160a01b031916339081179091558685526003845282852080549283018155855283852034920182905586855260058452828520908552909252822080549192909162000c1490849062002986565b925050819055503481600501600082825462000c31919062002986565b9091555050600a81015460009062000c4a90346200299c565b60078301546040516340c10f1960e01b8152336004820152602481018390529192506001600160a01b0316906340c10f1990604401600060405180830381600087803b15801562000c9a57600080fd5b505af115801562000caf573d6000803e3d6000fd5b505060408051348152602081018590523393508692507f3dbea1b4ce5f95137fdcac9b1d685825c3d70ace830df1ca5a181d3887add410910160405180910390a35050620009976001600080516020620037e083398151915255565b606060046000838152602001908152602001600020805480602002602001604051908101604052809291908181526020016000905b8282101562000e37578382906000526020600020906004020160405180608001604052908160008201805462000d76906200289a565b80601f016020809104026020016040519081016040528092919081815260200182805462000da4906200289a565b801562000df55780601f1062000dc95761010080835404028352916020019162000df5565b820191906000526020600020905b81548152906001019060200180831162000dd757829003601f168201915b50505091835250506001828101546020808401919091526002840154604084015260039093015460ff1615156060909201919091529183529201910162000d40565b505050509050919050565b600081815260016020526040902080546001600160a01b031662000e7a5760405162461bcd60e51b81526004016200079f90620028d6565b80546001600160a01b0316331462000ec45760405162461bcd60e51b815260206004820152600c60248201526b27b7363c9031b932b0ba37b960a11b60448201526064016200079f565b600b81015460ff161562000f0f5760405162461bcd60e51b8152602060048201526011602482015270105b1c9958591e4818d85b98d95b1b1959607a1b60448201526064016200079f565b600b8101805460ff1916600117905560405182907f403b6718db13878ac16c27decb08f09d3a10f116c7c25af575ff5bfbc11ae9e690600090a25050565b60006060806000806000606060006060806000806000600160008f815260200190815260200160002090508060000160009054906101000a90046001600160a01b03168160010182600201836003015484600401548560050154866006018760070160009054906101000a90046001600160a01b031688600801896009018a600a01548b600b0160009054906101000a900460ff168a805462000ff0906200289a565b80601f01602080910402602001604051908101604052809291908181526020018280546200101e906200289a565b80156200106f5780601f1062001043576101008083540402835291602001916200106f565b820191906000526020600020905b8154815290600101906020018083116200105157829003601f168201915b50505050509a5089805462001084906200289a565b80601f0160208091040260200160405190810160405280929190818152602001828054620010b2906200289a565b8015620011035780601f10620010d75761010080835404028352916020019162001103565b820191906000526020600020905b815481529060010190602001808311620010e557829003601f168201915b5050505050995085805462001118906200289a565b80601f016020809104026020016040519081016040528092919081815260200182805462001146906200289a565b8015620011975780601f106200116b5761010080835404028352916020019162001197565b820191906000526020600020905b8154815290600101906020018083116200117957829003601f168201915b50505050509550838054620011ac906200289a565b80601f0160208091040260200160405190810160405280929190818152602001828054620011da906200289a565b80156200122b5780601f10620011ff576101008083540402835291602001916200122b565b820191906000526020600020905b8154815290600101906020018083116200120d57829003601f168201915b5050505050935082805462001240906200289a565b80601f01602080910402602001604051908101604052809291908181526020018280546200126e906200289a565b8015620012bf5780601f106200129357610100808354040283529160200191620012bf565b820191906000526020600020905b815481529060010190602001808311620012a157829003601f168201915b505050505092509c509c509c509c509c509c509c509c509c509c509c509c505091939597999b5091939597999b565b600082815260016020526040812080546001600160a01b0316620013265760405162461bcd60e51b81526004016200079f90620028d6565b6001600160a01b038316620013715760405162461bcd60e51b815260206004820152601060248201526f24b73b30b634b21034b73b32b9ba37b960811b60448201526064016200079f565b600a81015460008581526005602090815260408083206001600160a01b0388168452909152902054620013a591906200299c565b9150505b92915050565b606060005467ffffffffffffffff811115620013cf57620013cf6200234f565b604051908082528060200260200182016040528015620013f9578160200160208202803683370190505b50905060005b600054811015620014345780828281518110620014205762001420620029b6565b6020908102919091010152600101620013ff565b5090565b60006200144f8c8c8c8c8c8c8c8c8c8c8c62001a79565b9c9b505050505050505050505050565b600082815260016020526040902080546001600160a01b0316620014975760405162461bcd60e51b81526004016200079f90620028d6565b600b81015460ff1615620014bf5760405162461bcd60e51b81526004016200079f9062002944565b6000838152600460205260409020548210620015125760405162461bcd60e51b8152602060048201526011602482015270496e76616c6964206d696c6573746f6e6560781b60448201526064016200079f565b60008381526005602090815260408083203384529091529020546200157a5760405162461bcd60e51b815260206004820152601760248201527f4f6e6c7920696e766573746f72732063616e20766f746500000000000000000060448201526064016200079f565b6000838152600760209081526040808320858452825280832033845290915290205460ff1615620015de5760405162461bcd60e51b815260206004820152600d60248201526c105b1c9958591e481d9bdd1959609a1b60448201526064016200079f565b6000838152600460205260408120805484908110620016015762001601620029b6565b60009182526020909120600490910201600381015490915060ff1615620016605760405162461bcd60e51b8152602060048201526012602482015271135a5b195cdd1bdb99481c995b19585cd95960721b60448201526064016200079f565b6000848152600760209081526040808320868452825280832033808552908352818420805460ff191660011790558784526005835281842090845290915281205460028301805491928392620016b890849062002986565b90915550506040518181523390859087907fa491730788b2591eb7d8bfd2d50b9608d4feab2750cd59eb3c5b916a5c84f0a49060200160405180910390a45050505050565b6200170762001a5a565b600082815260016020526040902080546001600160a01b03166200173f5760405162461bcd60e51b81526004016200079f90620028d6565b80546001600160a01b03163314620017895760405162461bcd60e51b815260206004820152600c60248201526b27b7363c9031b932b0ba37b960a11b60448201526064016200079f565b600b81015460ff1615620017b15760405162461bcd60e51b81526004016200079f9062002944565b6000838152600460205260409020548210620018045760405162461bcd60e51b8152602060048201526011602482015270496e76616c6964206d696c6573746f6e6560781b60448201526064016200079f565b6000838152600460205260408120805484908110620018275762001827620029b6565b60009182526020909120600490910201600381015490915060ff1615620018915760405162461bcd60e51b815260206004820152601a60248201527f4d696c6573746f6e6520616c72656164792072656c656173656400000000000060448201526064016200079f565b6005820154600280830154620018a7916200299c565b11620018e95760405162461bcd60e51b815260206004820152601060248201526f4e6f7420656e6f75676820766f74657360801b60448201526064016200079f565b80600101544710156200193f5760405162461bcd60e51b815260206004820152601d60248201527f496e73756666696369656e7420636f6e74726163742062616c616e636500000060448201526064016200079f565b60038101805460ff191660019081179091558254908201546040516000926001600160a01b031691908381818185875af1925050503d8060008114620019a2576040519150601f19603f3d011682016040523d82523d6000602084013e620019a7565b606091505b5050905080620019fa5760405162461bcd60e51b815260206004820152601960248201527f4d696c6573746f6e65207472616e73666572206661696c65640000000000000060448201526064016200079f565b83857fd33fcd27cbfb73a2d9058c968b560ccb306500bf536133802048489ecc7355e9846001015460405162001a3291815260200190565b60405180910390a350505062001a566001600080516020620037e083398151915255565b5050565b62001a646200214c565b6002600080516020620037e083398151915255565b6000808a1162001ac15760405162461bcd60e51b81526020600482015260126024820152710546172676574206d757374206265203e20360741b60448201526064016200079f565b42891162001b125760405162461bcd60e51b815260206004820152601a60248201527f446561646c696e65206d75737420626520696e2066757475726500000000000060448201526064016200079f565b6001600160a01b03871662001b5a5760405162461bcd60e51b815260206004820152600d60248201526c24b73b30b634b2103a37b5b2b760991b60448201526064016200079f565b600086511162001ba55760405162461bcd60e51b8152602060048201526015602482015274151bdad95b881cde5b589bdb081c995c5d5a5c9959605a1b60448201526064016200079f565b600085511162001bef5760405162461bcd60e51b8152602060048201526014602482015273151bdad95b881a5b5859d9481c995c5d5a5c995960621b60448201526064016200079f565b6000841162001c345760405162461bcd60e51b815260206004820152601060248201526f052617465206d757374206265203e20360841b60448201526064016200079f565b815183511462001c7c5760405162461bcd60e51b815260206004820152601260248201527109ad2d8cae6e8dedcca40dad2e6dac2e8c6d60731b60448201526064016200079f565b600083511162001ccf5760405162461bcd60e51b815260206004820152601f60248201527f4174206c65617374206f6e65206d696c6573746f6e652072657175697265640060448201526064016200079f565b6000805b835181101562001e4957600084828151811062001cf45762001cf4620029b6565b60200260200101511162001d4b5760405162461bcd60e51b815260206004820152601c60248201527f4d696c6573746f6e6520616d6f756e74206d757374206265203e20300000000060448201526064016200079f565b83818151811062001d605762001d60620029b6565b60200260200101518262001d75919062002986565b91506004600080548152602001908152602001600020604051806080016040528087848151811062001dab5762001dab620029b6565b6020026020010151815260200186848151811062001dcd5762001dcd620029b6565b60209081029190910181015182526000828201819052604090920182905283546001810185559382529020815191926004020190819062001e0f908262002a21565b506020820151600182810191909155604083015160028301556060909201516003909101805460ff19169115159190911790550162001cd3565b508a81111562001e9c5760405162461bcd60e51b815260206004820152601860248201527f4d696c6573746f6e65732065786365656420746172676574000000000000000060448201526064016200079f565b306001600160a01b0316886001600160a01b0316638da5cb5b6040518163ffffffff1660e01b8152600401602060405180830381865afa15801562001ee5573d6000803e3d6000fd5b505050506040513d601f19601f8201168201806040525081019062001f0b919062002aee565b6001600160a01b03161462001f635760405162461bcd60e51b815260206004820181905260248201527f546f6b656e206f776e6572206d7573742062652063726f776466756e64696e6760448201526064016200079f565b604051806101800160405280336001600160a01b031681526020018e81526020018d81526020018c81526020018b8152602001600081526020018a8152602001896001600160a01b0316815260200188815260200187815260200186815260200160001515815250600160008054815260200190815260200160002060008201518160000160006101000a8154816001600160a01b0302191690836001600160a01b03160217905550602082015181600101908162002023919062002a21565b50604082015160028201906200203a908262002a21565b50606082015160038201556080820151600482015560a0820151600582015560c082015160068201906200206f908262002a21565b5060e08201516007820180546001600160a01b0319166001600160a01b039092169190911790556101008201516008820190620020ad908262002a21565b506101208201516009820190620020c5908262002a21565b50610140820151600a82015561016090910151600b909101805460ff1916911515919091179055600080546040516001600160a01b038b16923392917f0ef2bf7802c393948d08caf4d04a02be072741662e1757a4b7c941f583cdf9f79190a4600080549080620021368362002b0e565b9190505550600160005462000a85919062002b2a565b600080516020620037e0833981519152546002036200217e57604051633ee5aeb560e01b815260040160405180910390fd5b565b610c9f8062002b4183390190565b600060208284031215620021a157600080fd5b5035919050565b60008151808452602080850194506020840160005b83811015620021db57815187529582019590820190600101620021bd565b509495945050505050565b604080825283519082018190526000906020906060840190828701845b828110156200222a5781516001600160a01b03168452928401929084019060010162002203565b5050508381036020850152620022418186620021a8565b9695505050505050565b6000815180845260005b81811015620022735760208185018101518683018201520162002255565b506000602082860101526020601f19601f83011685010191505092915050565b6001600160a01b038d16815261018060208201819052600090620022ba8382018f6200224b565b90508281036040840152620022d0818e6200224b565b90508b60608401528a60808401528960a084015282810360c0840152620022f8818a6200224b565b6001600160a01b03891660e085015290508281036101008401526200231e81886200224b565b90508281036101208401526200233581876200224b565b9150508361014083015262000a8561016083018415159052565b634e487b7160e01b600052604160045260246000fd5b604051601f8201601f1916810167ffffffffffffffff811182821017156200239157620023916200234f565b604052919050565b600082601f830112620023ab57600080fd5b813567ffffffffffffffff811115620023c857620023c86200234f565b620023dd601f8201601f191660200162002365565b818152846020838601011115620023f357600080fd5b816020850160208301376000918101602001919091529392505050565b600067ffffffffffffffff8211156200242d576200242d6200234f565b5060051b60200190565b600082601f8301126200244957600080fd5b81356020620024626200245c8362002410565b62002365565b82815260059290921b840181019181810190868411156200248257600080fd5b8286015b84811015620024c757803567ffffffffffffffff811115620024a85760008081fd5b620024b88986838b010162002399565b84525091830191830162002486565b509695505050505050565b600082601f830112620024e457600080fd5b81356020620024f76200245c8362002410565b8083825260208201915060208460051b8701019350868411156200251a57600080fd5b602086015b84811015620024c757803583529183019183016200251f565b60008060008060008060008060008060006101608c8e0312156200255b57600080fd5b67ffffffffffffffff808d3511156200257357600080fd5b620025828e8e358f0162002399565b9b508060208e013511156200259657600080fd5b620025a88e60208f01358f0162002399565b9a5060408d0135995060608d013598508060808e01351115620025ca57600080fd5b620025dc8e60808f01358f0162002399565b97508060a08e01351115620025f057600080fd5b620026028e60a08f01358f0162002399565b96508060c08e013511156200261657600080fd5b620026288e60c08f01358f0162002399565b95508060e08e013511156200263c57600080fd5b6200264e8e60e08f01358f0162002399565b94506101008d01359350806101208e013511156200266b57600080fd5b6200267e8e6101208f01358f0162002437565b9250806101408e013511156200269357600080fd5b50620026a78d6101408e01358e01620024d2565b90509295989b509295989b9093969950565b600060208083018184528085518083526040925060408601915060408160051b87010184880160005b838110156200273e57603f198984030185528151608081518186526200270b828701826200224b565b838b0151878c0152898401518a8801526060938401511515939096019290925250509386019390860190600101620026e2565b509098975050505050505050565b6001600160a01b03811681146200099757600080fd5b80356200276f816200274c565b919050565b600080604083850312156200278857600080fd5b8235915060208301356200279c816200274c565b809150509250929050565b602081526000620027bc6020830184620021a8565b9392505050565b60008060008060008060008060008060006101608c8e031215620027e657600080fd5b67ffffffffffffffff808d351115620027fe57600080fd5b6200280d8e8e358f0162002399565b9b508060208e013511156200282157600080fd5b620028338e60208f01358f0162002399565b9a5060408d0135995060608d013598508060808e013511156200285557600080fd5b620028678e60808f01358f0162002399565b97506200260260a08e0162002762565b600080604083850312156200288b57600080fd5b50508035926020909101359150565b600181811c90821680620028af57607f821691505b602082108103620028d057634e487b7160e01b600052602260045260246000fd5b50919050565b60208082526012908201527110d85b5c185a59db881b9bdd08199bdd5b9960721b604082015260600190565b6060815260006200291760608301866200224b565b82810360208401526200292b81866200224b565b91505060018060a01b0383166040830152949350505050565b60208082526012908201527110d85b5c185a59db8818d85b98d95b1b195960721b604082015260600190565b634e487b7160e01b600052601160045260246000fd5b80820180821115620013a957620013a962002970565b8082028115828204841417620013a957620013a962002970565b634e487b7160e01b600052603260045260246000fd5b601f82111562002a1c576000816000526020600020601f850160051c81016020861015620029f75750805b601f850160051c820191505b8181101562002a185782815560010162002a03565b5050505b505050565b815167ffffffffffffffff81111562002a3e5762002a3e6200234f565b62002a568162002a4f84546200289a565b84620029cc565b602080601f83116001811462002a8e576000841562002a755750858301515b600019600386901b1c1916600185901b17855562002a18565b600085815260208120601f198616915b8281101562002abf5788860151825594840194600190910190840162002a9e565b508582101562002ade5787850151600019600388901b60f8161c191681555b5050505050600190811b01905550565b60006020828403121562002b0157600080fd5b8151620027bc816200274c565b60006001820162002b235762002b2362002970565b5060010190565b81810381811115620013a957620013a96200297056fe60806040523480156200001157600080fd5b5060405162000c9f38038062000c9f8339810160408190526200003491620001b7565b6001600160a01b0381166200007f5760405162461bcd60e51b815260206004820152600d60248201526c24b73b30b634b21037bbb732b960991b604482015260640160405180910390fd5b60006200008d8482620002d5565b5060016200009c8382620002d5565b50600380546001600160a01b0319166001600160a01b0383169081179091556040516000907f8be0079c531659141344cd1fd0a4f28419497f9722a3daafe3b4186f6b6457e0908290a3505050620003a1565b634e487b7160e01b600052604160045260246000fd5b600082601f8301126200011757600080fd5b81516001600160401b0380821115620001345762000134620000ef565b604051601f8301601f19908116603f011681019082821181831017156200015f576200015f620000ef565b81604052838152602092508660208588010111156200017d57600080fd5b600091505b83821015620001a1578582018301518183018401529082019062000182565b6000602085830101528094505050505092915050565b600080600060608486031215620001cd57600080fd5b83516001600160401b0380821115620001e557600080fd5b620001f38783880162000105565b945060208601519150808211156200020a57600080fd5b50620002198682870162000105565b604086015190935090506001600160a01b03811681146200023957600080fd5b809150509250925092565b600181811c908216806200025957607f821691505b6020821081036200027a57634e487b7160e01b600052602260045260246000fd5b50919050565b601f821115620002d0576000816000526020600020601f850160051c81016020861015620002ab5750805b601f850160051c820191505b81811015620002cc57828155600101620002b7565b5050505b505050565b81516001600160401b03811115620002f157620002f1620000ef565b620003098162000302845462000244565b8462000280565b602080601f831160018114620003415760008415620003285750858301515b600019600386901b1c1916600185901b178555620002cc565b600085815260208120601f198616915b82811015620003725788860151825594840194600190910190840162000351565b5085821015620003915787850151600019600388901b60f8161c191681555b5050505050600190811b01905550565b6108ee80620003b16000396000f3fe608060405234801561001057600080fd5b50600436106100b45760003560e01c806370a082311161007157806370a08231146101535780638da5cb5b1461017357806395d89b411461019e578063a9059cbb146101a6578063dd62ed3e146101b9578063f2fde38b146101e457600080fd5b806306fdde03146100b9578063095ea7b3146100d757806318160ddd146100fa57806323b872dd14610111578063313ce5671461012457806340c10f191461013e575b600080fd5b6100c16101f7565b6040516100ce9190610737565b60405180910390f35b6100ea6100e53660046107a2565b610285565b60405190151581526020016100ce565b61010360025481565b6040519081526020016100ce565b6100ea61011f3660046107cc565b6102f2565b61012c601281565b60405160ff90911681526020016100ce565b61015161014c3660046107a2565b6103d6565b005b610103610161366004610808565b60046020526000908152604090205481565b600354610186906001600160a01b031681565b6040516001600160a01b0390911681526020016100ce565b6100c16104f0565b6100ea6101b43660046107a2565b6104fd565b6101036101c736600461082a565b600560209081526000928352604080842090915290825290205481565b6101516101f2366004610808565b610513565b600080546102049061085d565b80601f01602080910402602001604051908101604052809291908181526020018280546102309061085d565b801561027d5780601f106102525761010080835404028352916020019161027d565b820191906000526020600020905b81548152906001019060200180831161026057829003601f168201915b505050505081565b3360008181526005602090815260408083206001600160a01b038716808552925280832085905551919290917f8c5be1e5ebec7d5bd14f71427d1e84f3dd0314c0f7b2291e5b200ac8c7c3b925906102e09086815260200190565b60405180910390a35060015b92915050565b6001600160a01b0383166000908152600560209081526040808320338452909152812054828110156103605760405162461bcd60e51b8152602060048201526012602482015271105b1b1bddd85b98d948195e18d95959195960721b60448201526064015b60405180910390fd5b6001600160a01b038516600081815260056020908152604080832033808552908352928190208786039081905590519081529192917f8c5be1e5ebec7d5bd14f71427d1e84f3dd0314c0f7b2291e5b200ac8c7c3b925910160405180910390a36103cb8585856105fc565b506001949350505050565b6003546001600160a01b0316331461041d5760405162461bcd60e51b815260206004820152600a60248201526927b7363c9037bbb732b960b11b6044820152606401610357565b6001600160a01b0382166104675760405162461bcd60e51b8152602060048201526011602482015270125b9d985b1a59081c9958da5c1a595b9d607a1b6044820152606401610357565b80600260008282546104799190610897565b90915550506001600160a01b038216600090815260046020526040812080548392906104a6908490610897565b90915550506040518181526001600160a01b038316906000907fddf252ad1be2c89b69c2b068fc378daa952ba7f163c4a11628f55a4df523b3ef9060200160405180910390a35050565b600180546102049061085d565b600061050a3384846105fc565b50600192915050565b6003546001600160a01b0316331461055a5760405162461bcd60e51b815260206004820152600a60248201526927b7363c9037bbb732b960b11b6044820152606401610357565b6001600160a01b0381166105a05760405162461bcd60e51b815260206004820152600d60248201526c24b73b30b634b21037bbb732b960991b6044820152606401610357565b6003546040516001600160a01b038084169216907f8be0079c531659141344cd1fd0a4f28419497f9722a3daafe3b4186f6b6457e090600090a3600380546001600160a01b0319166001600160a01b0392909216919091179055565b6001600160a01b0382166106465760405162461bcd60e51b8152602060048201526011602482015270125b9d985b1a59081c9958da5c1a595b9d607a1b6044820152606401610357565b6001600160a01b038316600090815260046020526040902054818110156106a65760405162461bcd60e51b8152602060048201526014602482015273496e73756666696369656e742062616c616e636560601b6044820152606401610357565b6001600160a01b038085166000908152600460205260408082208585039055918516815290812080548492906106dd908490610897565b92505081905550826001600160a01b0316846001600160a01b03167fddf252ad1be2c89b69c2b068fc378daa952ba7f163c4a11628f55a4df523b3ef8460405161072991815260200190565b60405180910390a350505050565b60006020808352835180602085015260005b8181101561076557858101830151858201604001528201610749565b506000604082860101526040601f19601f8301168501019250505092915050565b80356001600160a01b038116811461079d57600080fd5b919050565b600080604083850312156107b557600080fd5b6107be83610786565b946020939093013593505050565b6000806000606084860312156107e157600080fd5b6107ea84610786565b92506107f860208501610786565b9150604084013590509250925092565b60006020828403121561081a57600080fd5b61082382610786565b9392505050565b6000806040838503121561083d57600080fd5b61084683610786565b915061085460208401610786565b90509250929050565b600181811c9082168061087157607f821691505b60208210810361089157634e487b7160e01b600052602260045260246000fd5b50919050565b808201808211156102ec57634e487b7160e01b600052601160045260246000fdfea26469706673582212204c234ed7865475e3abcd1c1a9645c8d186277183fb9261f45ee1b7e880355b0a64736f6c634300081800339b779b17422d0df92223018b32b4d1fa46e071723d6817e2486d003becc55f00a2646970667358221220437ca1dcfe106fda9db004b98b9b5f4a8eb55023b74e49e1fa2309f150ff6e3064736f6c63430008180033",
  "linkReferences": {},
  "deployedLinkReferences": {}
}