{
  "_format": "hh-sol-artifact-1",
  "contractName": "CrowdfundingTokenized",
  "sourceName": "contracts/CrowdfundingTokenized.sol",
  "abi": [
    {
      "inputs": [],
      "name": "ReentrancyGuardReentrantCall",
      "type": "error"
    },
    {
      "anonymous": false,
      "inputs": [
        {
          "indexed": true,
          "internalType": "uint256",
          "name": "campaignId",
          "type": "uint256"
        }
      ],
      "name": "CampaignCancelled",
      "type": "event"
    },
    {
      "anonymous": false,
      "inputs": [
        {
          "indexed": true,
          "internalType": "uint256",
          "name": "campaignId",
          "type": "uint256"
        },
        {
          "indexed": true,
          "internalType": "address",
          "name": "owner",
          "type": "address"
        },
        {
          "indexed": true,
          "internalType": "address",
          "name": "token",
          "type": "address"
        }
      ],
      "name": "CampaignCreated",
      "type": "event"
    },
    {
      "anonymous": false,
      "inputs": [
        {
          "indexed": true,
          "internalType": "uint256",
          "name": "campaignId",
          "type": "uint256"
        },
        {
          "indexed": true,
          "internalType": "address",
          "name": "investor",
          "type": "address"
        },
        {
          "indexed": false,
          "internalType": "uint256",
          "name": "amount",
          "type": "uint256"
        },
        {
          "indexed": false,
          "internalType": "uint256",
          "name": "mintedTokens",
          "type": "uint256"
        }
      ],
      "name": "DonationReceived",
      "type": "event"
    },
    {
      "anonymous": false,
      "inputs": [
        {
          "indexed": true,
          "internalType": "uint256",
          "name": "campaignId",
          "type": "uint256"
        },
        {
          "indexed": true,
          "internalType": "uint256",
          "name": "milestoneId",
          "type": "uint256"
        },
        {
          "indexed": false,
          "internalType": "uint256",
          "name": "amount",
          "type": "uint256"
        }
      ],
      "name": "MilestoneReleased",
      "type": "event"
    },
    {
      "anonymous": false,
      "inputs": [
        {
          "indexed": true,
          "internalType": "uint256",
          "name": "campaignId",
          "type": "uint256"
        },
        {
          "indexed": true,
          "internalType": "uint256",
          "name": "milestoneId",
          "type": "uint256"
        },
        {
          "indexed": true,
          "internalType": "address",
          "name": "investor",
          "type": "address"
        },
        {
          "indexed": false,
          "internalType": "uint256",
          "name": "weight",
          "type": "uint256"
        }
      ],
      "name": "MilestoneVoted",
      "type": "event"
    },
    {
      "anonymous": false,
      "inputs": [
        {
          "indexed": true,
          "internalType": "uint256",
          "name": "campaignId",
          "type": "uint256"
        },
        {
          "indexed": true,
          "internalType": "address",
          "name": "investor",
          "type": "address"
        },
        {
          "indexed": false,
          "internalType": "uint256",
          "name": "amount",
          "type": "uint256"
        }
      ],
      "name": "Refunded",
      "type": "event"
    },
    {
      "inputs": [
        {
          "internalType": "uint256",
          "name": "",
          "type": "uint256"
        }
      ],
      "name": "campaigns",
      "outputs": [
        {
          "internalType": "address payable",
          "name": "owner",
          "type": "address"
        },
        {
          "internalType": "string",
          "name": "title",
          "type": "string"
        },
        {
          "internalType": "string",
          "name": "description",
          "type": "string"
        },
        {
          "internalType": "uint256",
          "name": "target",
          "type": "uint256"
        },
        {
          "internalType": "uint256",
          "name": "deadline",
          "type": "uint256"
        },
        {
          "internalType": "uint256",
          "name": "amountCollected",
          "type": "uint256"
        },
        {
          "internalType": "string",
          "name": "image",
          "type": "string"
        },
        {
          "internalType": "address",
          "name": "token",
          "type": "address"
        },
        {
          "internalType": "string",
          "name": "tokenSymbol",
          "type": "string"
        },
        {
          "internalType": "string",
          "name": "tokenImage",
          "type": "string"
        },
        {
          "internalType": "uint256",
          "name": "tokensPerEth",
          "type": "uint256"
        },
        {
          "internalType": "bool",
          "name": "cancelled",
          "type": "bool"
        }
      ],
      "stateMutability": "view",
      "type": "function"
    },
    {
      "inputs": [
        {
          "internalType": "uint256",
          "name": "_id",
          "type": "uint256"
        }
      ],
      "name": "cancelCampaign",
      "outputs": [],
      "stateMutability": "nonpayable",
      "type": "function"
    },
    {
      "inputs": [
        {
          "internalType": "string",
          "name": "_title",
          "type": "string"
        },
        {
          "internalType": "string",
          "name": "_description",
          "type": "string"
        },
        {
          "internalType": "uint256",
          "name": "_target",
          "type": "uint256"
        },
        {
          "internalType": "uint256",
          "name": "_deadline",
          "type": "uint256"
        },
        {
          "internalType": "string",
          "name": "_image",
          "type": "string"
        },
        {
          "internalType": "address",
          "name": "_token",
          "type": "address"
        },
        {
          "internalType": "string",
          "name": "_tokenSymbol",
          "type": "string"
        },
        {
          "internalType": "string",
          "name": "_tokenImage",
          "type": "string"
        },
        {
          "internalType": "uint256",
          "name": "_tokensPerEth",
          "type": "uint256"
        },
        {
          "internalType": "string[]",
          "name": "_milestoneTitles",
          "type": "string[]"
        },
        {
          "internalType": "uint256[]",
          "name": "_milestoneAmounts",
          "type": "uint256[]"
        }
      ],
      "name": "createCampaign",
      "outputs": [
        {
          "internalType": "uint256",
          "name": "",
          "type": "uint256"
        }
      ],
      "stateMutability": "nonpayable",
      "type": "function"
    },
    {
      "inputs": [
        {
          "internalType": "string",
          "name": "_title",
          "type": "string"
        },
        {
          "internalType": "string",
          "name": "_description",
          "type": "string"
        },
        {
          "internalType": "uint256",
          "name": "_target",
          "type": "uint256"
        },
        {
          "internalType": "uint256",
          "name": "_deadline",
          "type": "uint256"
        },
        {
          "internalType": "string",
          "name": "_image",
          "type": "string"
        },
        {
          "internalType": "string",
          "name": "_tokenName",
          "type": "string"
        },
        {
          "internalType": "string",
          "name": "_tokenSymbol",
          "type": "string"
        },
        {
          "internalType": "string",
          "name": "_tokenImage",
          "type": "string"
        },
        {
          "internalType": "uint256",
          "name": "_tokensPerEth",
          "type": "uint256"
        },
        {
          "internalType": "string[]",
          "name": "_milestoneTitles",
          "type": "string[]"
        },
        {
          "internalType": "uint256[]",
          "name": "_milestoneAmounts",
          "type": "uint256[]"
        }
      ],
      "name": "createCampaignWithToken",
      "outputs": [
        {
          "internalType": "uint256",
          "name": "",
          "type": "uint256"
        }
      ],
      "stateMutability": "nonpayable",
      "type": "function"
    },
    {
      "inputs": [
        {
          "internalType": "uint256",
          "name": "_id",
          "type": "uint256"
        }
      ],
      "name": "donateToCampaign",
      "outputs": [],
      "stateMutability": "payable",
      "type": "function"
    },
    {
      "inputs": [
        {
          "internalType": "uint256",
          "name": "_id",
          "type": "uint256"
        }
      ],
      "name": "getCampaign",
      "outputs": [
        {
          "internalType": "address",
          "name": "owner",
          "type": "address"
        },
        {
          "internalType": "string",
          "name": "title",
          "type": "string"
        },
        {
          "internalType": "string",
          "name": "description",
          "type": "string"
        },
        {
          "internalType": "uint256",
          "name": "target",
          "type": "uint256"
        },
        {
          "internalType": "uint256",
          "name": "deadline",
          "type": "uint256"
        },
        {
          "internalType": "uint256",
          "name": "amountCollected",
          "type": "uint256"
        },
        {
          "internalType": "string",
          "name": "image",
          "type": "string"
        },
        {
          "internalType": "address",
          "name": "token",
          "type": "address"
        },
        {
          "internalType": "string",
          "name": "tokenSymbol",
          "type": "string"
        },
        {
          "internalType": "string",
          "name": "tokenImage",
          "type": "string"
        },
        {
          "internalType": "uint256",
          "name": "tokensPerEth",
          "type": "uint256"
        },
        {
          "internalType": "bool",
          "name": "cancelled",
          "type": "bool"
        }
      ],
      "stateMutability": "view",
      "type": "function"
    },
    {
      "inputs": [],
      "name": "getCampaigns",
      "outputs": [
        {
          "internalType": "uint256[]",
          "name": "ids",
          "type": "uint256[]"
        }
      ],
      "stateMutability": "view",
      "type": "function"
    },
    {
      "inputs": [
        {
          "internalType": "uint256",
          "name": "_id",
          "type": "uint256"
        }
      ],
      "name": "getDonators",
      "outputs": [
        {
          "internalType": "address[]",
          "name": "",
          "type": "address[]"
        },
        {
          "internalType": "uint256[]",
          "name": "",
          "type": "uint256[]"
        }
      ],
      "stateMutability": "view",
      "type": "function"
    },
    {
      "inputs": [
        {
          "internalType": "uint256",
          "name": "_id",
          "type": "uint256"
        }
      ],
      "name": "getMilestones",
      "outputs": [
        {
          "components": [
            {
              "internalType": "string",
              "name": "title",
              "type": "string"
            },
            {
              "internalType": "uint256",
              "name": "amount",
              "type": "uint256"
            },
            {
              "internalType": "uint256",
              "name": "voteWeight",
              "type": "uint256"
            },
            {
              "internalType": "bool",
              "name": "released",
              "type": "bool"
            }
          ],
          "internalType": "struct CrowdfundingTokenized.Milestone[]",
          "name": "",
          "type": "tuple[]"
        }
      ],
      "stateMutability": "view",
      "type": "function"
    },
    {
      "inputs": [],
      "name": "numberOfCampaigns",
      "outputs": [
        {
          "internalType": "uint256",
          "name": "",
          "type": "uint256"
        }
      ],
      "stateMutability": "view",
      "type": "function"
    },
    {
      "inputs": [
        {
          "internalType": "uint256",
          "name": "_id",
          "type": "uint256"
        }
      ],
      "name": "refund",
      "outputs": [],
      "stateMutability": "nonpayable",
      "type": "function"
    },
    {
      "inputs": [
        {
          "internalType": "uint256",
          "name": "_id",
          "type": "uint256"
        },
        {
          "internalType": "uint256",
          "name": "_milestoneId",
          "type": "uint256"
        }
      ],
      "name": "releaseMilestone",
      "outputs": [],
      "stateMutability": "nonpayable",
      "type": "function"
    },
    {
      "inputs": [
        {
          "internalType": "uint256",
          "name": "_id",
          "type": "uint256"
        },
        {
          "internalType": "uint256",
          "name": "_milestoneId",
          "type": "uint256"
        }
      ],
      "name": "voteMilestone",
      "outputs": [],
      "stateMutability": "nonpayable",
      "type": "function"
    }
  ],
  "bytecode": "0x608060405234801561001057600080fd5b5060017f9b779b17422d0df92223018b32b4d1fa46e071723d6817e2486d003becc55f0055613705806100446000396000f3fe608060405260043610620000d25760003560e01c806342c549c01162000089578063a6b036331162000060578063a6b036331462000257578063c8b24a4d146200027e578063d4b640db14620002a3578063dbaf091014620002c857600080fd5b806342c549c014620001d957806345598b4a146200020d5780635598f8cc146200023257600080fd5b806307ca140d14620000d75780630fa91fa91462000102578063141961bc1462000137578063278ecde114620001765780632dafd848146200019d57806342a4fda814620001c2575b600080fd5b348015620000e457600080fd5b50620000ef60005481565b6040519081526020015b60405180910390f35b3480156200010f57600080fd5b5062000127620001213660046200208b565b620002ed565b604051620000f9929190620020e3565b3480156200014457600080fd5b506200015c620001563660046200208b565b620003c0565b604051620000f99c9b9a9998979695949392919062002190565b3480156200018357600080fd5b506200019b620001953660046200208b565b62000707565b005b348015620001aa57600080fd5b50620000ef620001bc36600462002435565b62000958565b6200019b620001d33660046200208b565b62000a54565b348015620001e657600080fd5b50620001fe620001f83660046200208b565b62000cc9565b604051620000f99190620025b6565b3480156200021a57600080fd5b506200019b6200022c3660046200208b565b62000e00565b3480156200023f57600080fd5b506200015c620002513660046200208b565b62000f0b565b3480156200026457600080fd5b506200026f620012ac565b604051620000f9919062002649565b3480156200028b57600080fd5b50620000ef6200029d3660046200268d565b62001335565b348015620002b057600080fd5b506200019b620002c236600462002741565b6200135c565b348015620002d557600080fd5b506200019b620002e736600462002741565b620015fa565b600081815260026020908152604080832060038352928190208354825181850281018501909352808352606094859490939184918301828280156200035c57602002820191906000526020600020905b81546001600160a01b031681526001909101906020018083116200033d575b5050505050915080805480602002602001604051908101604052809291908181526020018280548015620003b057602002820191906000526020600020905b8154815260200190600101908083116200039b575b5050505050905091509150915091565b6001602081905260009182526040909120805491810180546001600160a01b0390931692620003ef9062002764565b80601f01602080910402602001604051908101604052809291908181526020018280546200041d9062002764565b80156200046e5780601f1062000442576101008083540402835291602001916200046e565b820191906000526020600020905b8154815290600101906020018083116200045057829003601f168201915b505050505090806002018054620004859062002764565b80601f0160208091040260200160405190810160405280929190818152602001828054620004b39062002764565b8015620005045780601f10620004d85761010080835404028352916020019162000504565b820191906000526020600020905b815481529060010190602001808311620004e657829003601f168201915b5050505050908060030154908060040154908060050154908060060180546200052d9062002764565b80601f01602080910402602001604051908101604052809291908181526020018280546200055b9062002764565b8015620005ac5780601f106200058057610100808354040283529160200191620005ac565b820191906000526020600020905b8154815290600101906020018083116200058e57829003601f168201915b505050600784015460088501805494956001600160a01b03909216949193509150620005d89062002764565b80601f0160208091040260200160405190810160405280929190818152602001828054620006069062002764565b8015620006575780601f106200062b5761010080835404028352916020019162000657565b820191906000526020600020905b8154815290600101906020018083116200063957829003601f168201915b5050505050908060090180546200066e9062002764565b80601f01602080910402602001604051908101604052809291908181526020018280546200069c9062002764565b8015620006ed5780601f10620006c157610100808354040283529160200191620006ed565b820191906000526020600020905b815481529060010190602001808311620006cf57829003601f168201915b50505050600a830154600b9093015491929160ff1690508c565b6200071162001957565b6000818152600160209081526040808320600583528184203385529092529091205481546001600160a01b0316620007665760405162461bcd60e51b81526004016200075d90620027a0565b60405180910390fd5b600b82015460ff16620007b55760405162461bcd60e51b815260206004820152601660248201527510d85b5c185a59db881b9bdd0818d85b98d95b1b195960521b60448201526064016200075d565b60008111620007f95760405162461bcd60e51b815260206004820152600f60248201526e27379031b7b73a3934b13aba34b7b760891b60448201526064016200075d565b600083815260066020908152604080832033845290915290205460ff1615620008585760405162461bcd60e51b815260206004820152601060248201526f105b1c9958591e481c99599d5b99195960821b60448201526064016200075d565b6000838152600660209081526040808320338085529252808320805460ff191660011790555183908381818185875af1925050503d8060008114620008ba576040519150601f19603f3d011682016040523d82523d6000602084013e620008bf565b606091505b5050905080620009025760405162461bcd60e51b815260206004820152600d60248201526c1499599d5b990819985a5b1959609a1b60448201526064016200075d565b604051828152339085907f7ca5472b7ea78c2c0141c5a12ee6d170cf4ce8ed06be3d22c8252ddfc7a6a2c49060200160405180910390a3505050620009556001600080516020620036b083398151915255565b50565b600080875111620009a25760405162461bcd60e51b8152602060048201526013602482015272151bdad95b881b985b59481c995c5d5a5c9959606a1b60448201526064016200075d565b6000865111620009ed5760405162461bcd60e51b8152602060048201526015602482015274151bdad95b881cde5b589bdb081c995c5d5a5c9959605a1b60448201526064016200075d565b600087873060405162000a00906200207d565b62000a0e93929190620027cc565b604051809103906000f08015801562000a2b573d6000803e3d6000fd5b50905062000a438d8d8d8d8d868d8d8d8d8d62001976565b9d9c50505050505050505050505050565b62000a5e62001957565b600081815260016020526040902080546001600160a01b031662000a965760405162461bcd60e51b81526004016200075d90620027a0565b600b81015460ff161562000abe5760405162461bcd60e51b81526004016200075d906200280e565b8060040154421062000b045760405162461bcd60e51b815260206004820152600e60248201526d10d85b5c185a59db88195b99195960921b60448201526064016200075d565b662386f26fc1000034101562000b5d5760405162461bcd60e51b815260206004820152601c60248201527f446f6e6174696f6e206d757374206265203e3d20302e3031204554480000000060448201526064016200075d565b60008281526002602090815260408083208054600181810183559185528385200180546001600160a01b031916339081179091558685526003845282852080549283018155855283852034920182905586855260058452828520908552909252822080549192909162000bd290849062002850565b925050819055503481600501600082825462000bef919062002850565b9091555050600a81015460009062000c0890346200286c565b60078301546040516340c10f1960e01b8152336004820152602481018390529192506001600160a01b0316906340c10f1990604401600060405180830381600087803b15801562000c5857600080fd5b505af115801562000c6d573d6000803e3d6000fd5b505060408051348152602081018590523393508692507f3dbea1b4ce5f95137fdcac9b1d685825c3d70ace830df1ca5a181d3887add410910160405180910390a35050620009556001600080516020620036b083398151915255565b606060046000838152602001908152602001600020805480602002602001604051908101604052809291908181526020016000905b8282101562000df5578382906000526020600020906004020160405180608001604052908160008201805462000d349062002764565b80601f016020809104026020016040519081016040528092919081815260200182805462000d629062002764565b801562000db35780601f1062000d875761010080835404028352916020019162000db3565b820191906000526020600020905b81548152906001019060200180831162000d9557829003601f168201915b50505091835250506001828101546020808401919091526002840154604084015260039093015460ff1615156060909201919091529183529201910162000cfe565b505050509050919050565b600081815260016020526040902080546001600160a01b031662000e385760405162461bcd60e51b81526004016200075d90620027a0565b80546001600160a01b0316331462000e825760405162461bcd60e51b815260206004820152600c60248201526b27b7363c9031b932b0ba37b960a11b60448201526064016200075d565b600b81015460ff161562000ecd5760405162461bcd60e51b8152602060048201526011602482015270105b1c9958591e4818d85b98d95b1b1959607a1b60448201526064016200075d565b600b8101805460ff1916600117905560405182907f403b6718db13878ac16c27decb08f09d3a10f116c7c25af575ff5bfbc11ae9e690600090a25050565b60006060806000806000606060006060806000806000600160008f815260200190815260200160002090508060000160009054906101000a90046001600160a01b03168160010182600201836003015484600401548560050154866006018760070160009054906101000a90046001600160a01b031688600801896009018a600a01548b600b0160009054906101000a900460ff168a805462000fae9062002764565b80601f016020809104026020016040519081016040528092919081815260200182805462000fdc9062002764565b80156200102d5780601f1062001001576101008083540402835291602001916200102d565b820191906000526020600020905b8154815290600101906020018083116200100f57829003601f168201915b50505050509a50898054620010429062002764565b80601f0160208091040260200160405190810160405280929190818152602001828054620010709062002764565b8015620010c15780601f106200109557610100808354040283529160200191620010c1565b820191906000526020600020905b815481529060010190602001808311620010a357829003601f168201915b50505050509950858054620010d69062002764565b80601f0160208091040260200160405190810160405280929190818152602001828054620011049062002764565b8015620011555780601f10620011295761010080835404028352916020019162001155565b820191906000526020600020905b8154815290600101906020018083116200113757829003601f168201915b505050505095508380546200116a9062002764565b80601f0160208091040260200160405190810160405280929190818152602001828054620011989062002764565b8015620011e95780601f10620011bd57610100808354040283529160200191620011e9565b820191906000526020600020905b815481529060010190602001808311620011cb57829003601f168201915b50505050509350828054620011fe9062002764565b80601f01602080910402602001604051908101604052809291908181526020018280546200122c9062002764565b80156200127d5780601f1062001251576101008083540402835291602001916200127d565b820191906000526020600020905b8154815290600101906020018083116200125f57829003601f168201915b505050505092509c509c509c509c509c509c509c509c509c509c509c509c505091939597999b5091939597999b565b606060005467ffffffffffffffff811115620012cc57620012cc6200224c565b604051908082528060200260200182016040528015620012f6578160200160208202803683370190505b50905060005b6000548110156200133157808282815181106200131d576200131d62002886565b6020908102919091010152600101620012fc565b5090565b60006200134c8c8c8c8c8c8c8c8c8c8c8c62001976565b9c9b505050505050505050505050565b600082815260016020526040902080546001600160a01b0316620013945760405162461bcd60e51b81526004016200075d90620027a0565b600b81015460ff1615620013bc5760405162461bcd60e51b81526004016200075d906200280e565b60008381526004602052604090205482106200140f5760405162461bcd60e51b8152602060048201526011602482015270496e76616c6964206d696c6573746f6e6560781b60448201526064016200075d565b6000838152600560209081526040808320338452909152902054620014775760405162461bcd60e51b815260206004820152601760248201527f4f6e6c7920696e766573746f72732063616e20766f746500000000000000000060448201526064016200075d565b6000838152600760209081526040808320858452825280832033845290915290205460ff1615620014db5760405162461bcd60e51b815260206004820152600d60248201526c105b1c9958591e481d9bdd1959609a1b60448201526064016200075d565b6000838152600460205260408120805484908110620014fe57620014fe62002886565b60009182526020909120600490910201600381015490915060ff16156200155d5760405162461bcd60e51b8152602060048201526012602482015271135a5b195cdd1bdb99481c995b19585cd95960721b60448201526064016200075d565b6000848152600760209081526040808320868452825280832033808552908352818420805460ff191660011790558784526005835281842090845290915281205460028301805491928392620015b590849062002850565b90915550506040518181523390859087907fa491730788b2591eb7d8bfd2d50b9608d4feab2750cd59eb3c5b916a5c84f0a49060200160405180910390a45050505050565b6200160462001957565b600082815260016020526040902080546001600160a01b03166200163c5760405162461bcd60e51b81526004016200075d90620027a0565b80546001600160a01b03163314620016865760405162461bcd60e51b815260206004820152600c60248201526b27b7363c9031b932b0ba37b960a11b60448201526064016200075d565b600b81015460ff1615620016ae5760405162461bcd60e51b81526004016200075d906200280e565b6000838152600460205260409020548210620017015760405162461bcd60e51b8152602060048201526011602482015270496e76616c6964206d696c6573746f6e6560781b60448201526064016200075d565b600083815260046020526040812080548490811062001724576200172462002886565b60009182526020909120600490910201600381015490915060ff16156200178e5760405162461bcd60e51b815260206004820152601a60248201527f4d696c6573746f6e6520616c72656164792072656c656173656400000000000060448201526064016200075d565b6005820154600280830154620017a4916200286c565b11620017e65760405162461bcd60e51b815260206004820152601060248201526f4e6f7420656e6f75676820766f74657360801b60448201526064016200075d565b80600101544710156200183c5760405162461bcd60e51b815260206004820152601d60248201527f496e73756666696369656e7420636f6e74726163742062616c616e636500000060448201526064016200075d565b60038101805460ff191660019081179091558254908201546040516000926001600160a01b031691908381818185875af1925050503d80600081146200189f576040519150601f19603f3d011682016040523d82523d6000602084013e620018a4565b606091505b5050905080620018f75760405162461bcd60e51b815260206004820152601960248201527f4d696c6573746f6e65207472616e73666572206661696c65640000000000000060448201526064016200075d565b83857fd33fcd27cbfb73a2d9058c968b560ccb306500bf536133802048489ecc7355e984600101546040516200192f91815260200190565b60405180910390a3505050620019536001600080516020620036b083398151915255565b5050565b6200196162002049565b6002600080516020620036b083398151915255565b6000808a11620019be5760405162461bcd60e51b81526020600482015260126024820152710546172676574206d757374206265203e20360741b60448201526064016200075d565b42891162001a0f5760405162461bcd60e51b815260206004820152601a60248201527f446561646c696e65206d75737420626520696e2066757475726500000000000060448201526064016200075d565b6001600160a01b03871662001a575760405162461bcd60e51b815260206004820152600d60248201526c24b73b30b634b2103a37b5b2b760991b60448201526064016200075d565b600086511162001aa25760405162461bcd60e51b8152602060048201526015602482015274151bdad95b881cde5b589bdb081c995c5d5a5c9959605a1b60448201526064016200075d565b600085511162001aec5760405162461bcd60e51b8152602060048201526014602482015273151bdad95b881a5b5859d9481c995c5d5a5c995960621b60448201526064016200075d565b6000841162001b315760405162461bcd60e51b815260206004820152601060248201526f052617465206d757374206265203e20360841b60448201526064016200075d565b815183511462001b795760405162461bcd60e51b815260206004820152601260248201527109ad2d8cae6e8dedcca40dad2e6dac2e8c6d60731b60448201526064016200075d565b600083511162001bcc5760405162461bcd60e51b815260206004820152601f60248201527f4174206c65617374206f6e65206d696c6573746f6e652072657175697265640060448201526064016200075d565b6000805b835181101562001d4657600084828151811062001bf15762001bf162002886565b60200260200101511162001c485760405162461bcd60e51b815260206004820152601c60248201527f4d696c6573746f6e6520616d6f756e74206d757374206265203e20300000000060448201526064016200075d565b83818151811062001c5d5762001c5d62002886565b60200260200101518262001c72919062002850565b91506004600080548152602001908152602001600020604051806080016040528087848151811062001ca85762001ca862002886565b6020026020010151815260200186848151811062001cca5762001cca62002886565b60209081029190910181015182526000828201819052604090920182905283546001810185559382529020815191926004020190819062001d0c9082620028f1565b506020820151600182810191909155604083015160028301556060909201516003909101805460ff19169115159190911790550162001bd0565b508a81111562001d995760405162461bcd60e51b815260206004820152601860248201527f4d696c6573746f6e65732065786365656420746172676574000000000000000060448201526064016200075d565b306001600160a01b0316886001600160a01b0316638da5cb5b6040518163ffffffff1660e01b8152600401602060405180830381865afa15801562001de2573d6000803e3d6000fd5b505050506040513d601f19601f8201168201806040525081019062001e089190620029be565b6001600160a01b03161462001e605760405162461bcd60e51b815260206004820181905260248201527f546f6b656e206f776e6572206d7573742062652063726f776466756e64696e6760448201526064016200075d565b604051806101800160405280336001600160a01b031681526020018e81526020018d81526020018c81526020018b8152602001600081526020018a8152602001896001600160a01b0316815260200188815260200187815260200186815260200160001515815250600160008054815260200190815260200160002060008201518160000160006101000a8154816001600160a01b0302191690836001600160a01b03160217905550602082015181600101908162001f209190620028f1565b506040820151600282019062001f379082620028f1565b50606082015160038201556080820151600482015560a0820151600582015560c0820151600682019062001f6c9082620028f1565b5060e08201516007820180546001600160a01b0319166001600160a01b03909216919091179055610100820151600882019062001faa9082620028f1565b50610120820151600982019062001fc29082620028f1565b50610140820151600a82015561016090910151600b909101805460ff1916911515919091179055600080546040516001600160a01b038b16923392917f0ef2bf7802c393948d08caf4d04a02be072741662e1757a4b7c941f583cdf9f79190a46000805490806200203383620029de565b9190505550600160005462000a439190620029fa565b600080516020620036b0833981519152546002036200207b57604051633ee5aeb560e01b815260040160405180910390fd5b565b610c9f8062002a1183390190565b6000602082840312156200209e57600080fd5b5035919050565b60008151808452602080850194506020840160005b83811015620020d857815187529582019590820190600101620020ba565b509495945050505050565b604080825283519082018190526000906020906060840190828701845b82811015620021275781516001600160a01b03168452928401929084019060010162002100565b50505083810360208501526200213e8186620020a5565b9695505050505050565b6000815180845260005b81811015620021705760208185018101518683018201520162002152565b506000602082860101526020601f19601f83011685010191505092915050565b6001600160a01b038d16815261018060208201819052600090620021b78382018f62002148565b90508281036040840152620021cd818e62002148565b90508b60608401528a60808401528960a084015282810360c0840152620021f5818a62002148565b6001600160a01b03891660e085015290508281036101008401526200221b818862002148565b905082810361012084015262002232818762002148565b9150508361014083015262000a4361016083018415159052565b634e487b7160e01b600052604160045260246000fd5b604051601f8201601f1916810167ffffffffffffffff811182821017156200228e576200228e6200224c565b604052919050565b600082601f830112620022a857600080fd5b813567ffffffffffffffff811115620022c557620022c56200224c565b620022da601f8201601f191660200162002262565b818152846020838601011115620022f057600080fd5b816020850160208301376000918101602001919091529392505050565b600067ffffffffffffffff8211156200232a576200232a6200224c565b5060051b60200190565b600082601f8301126200234657600080fd5b813560206200235f62002359836200230d565b62002262565b82815260059290921b840181019181810190868411156200237f57600080fd5b8286015b84811015620023c457803567ffffffffffffffff811115620023a55760008081fd5b620023b58986838b010162002296565b84525091830191830162002383565b509695505050505050565b600082601f830112620023e157600080fd5b81356020620023f462002359836200230d565b8083825260208201915060208460051b8701019350868411156200241757600080fd5b602086015b84811015620023c457803583529183019183016200241c565b60008060008060008060008060008060006101608c8e0312156200245857600080fd5b67ffffffffffffffff808d3511156200247057600080fd5b6200247f8e8e358f0162002296565b9b508060208e013511156200249357600080fd5b620024a58e60208f01358f0162002296565b9a5060408d0135995060608d013598508060808e01351115620024c757600080fd5b620024d98e60808f01358f0162002296565b97508060a08e01351115620024ed57600080fd5b620024ff8e60a08f01358f0162002296565b96508060c08e013511156200251357600080fd5b620025258e60c08f01358f0162002296565b95508060e08e013511156200253957600080fd5b6200254b8e60e08f01358f0162002296565b94506101008d01359350806101208e013511156200256857600080fd5b6200257b8e6101208f01358f0162002334565b9250806101408e013511156200259057600080fd5b50620025a48d6101408e01358e01620023cf565b90509295989b509295989b9093969950565b600060208083018184528085518083526040925060408601915060408160051b87010184880160005b838110156200263b57603f19898403018552815160808151818652620026088287018262002148565b838b0151878c0152898401518a8801526060938401511515939096019290925250509386019390860190600101620025df565b509098975050505050505050565b6020815260006200265e6020830184620020a5565b9392505050565b6001600160a01b03811681146200095557600080fd5b8035620026888162002665565b919050565b60008060008060008060008060008060006101608c8e031215620026b057600080fd5b67ffffffffffffffff808d351115620026c857600080fd5b620026d78e8e358f0162002296565b9b508060208e01351115620026eb57600080fd5b620026fd8e60208f01358f0162002296565b9a5060408d0135995060608d013598508060808e013511156200271f57600080fd5b620027318e60808f01358f0162002296565b9750620024ff60a08e016200267b565b600080604083850312156200275557600080fd5b50508035926020909101359150565b600181811c908216806200277957607f821691505b6020821081036200279a57634e487b7160e01b600052602260045260246000fd5b50919050565b60208082526012908201527110d85b5c185a59db881b9bdd08199bdd5b9960721b604082015260600190565b606081526000620027e1606083018662002148565b8281036020840152620027f5818662002148565b91505060018060a01b0383166040830152949350505050565b60208082526012908201527110d85b5c185a59db8818d85b98d95b1b195960721b604082015260600190565b634e487b7160e01b600052601160045260246000fd5b808201808211156200286657620028666200283a565b92915050565b80820281158282048414176200286657620028666200283a565b634e487b7160e01b600052603260045260246000fd5b601f821115620028ec576000816000526020600020601f850160051c81016020861015620028c75750805b601f850160051c820191505b81811015620028e857828155600101620028d3565b5050505b505050565b815167ffffffffffffffff8111156200290e576200290e6200224c565b62002926816200291f845462002764565b846200289c565b602080601f8311600181146200295e5760008415620029455750858301515b600019600386901b1c1916600185901b178555620028e8565b600085815260208120601f198616915b828110156200298f578886015182559484019460019091019084016200296e565b5085821015620029ae5787850151600019600388901b60f8161c191681555b5050505050600190811b01905550565b600060208284031215620029d157600080fd5b81516200265e8162002665565b600060018201620029f357620029f36200283a565b5060010190565b818103818111156200286657620028666200283a56fe60806040523480156200001157600080fd5b5060405162000c9f38038062000c9f8339810160408190526200003491620001b7565b6001600160a01b0381166200007f5760405162461bcd60e51b815260206004820152600d60248201526c24b73b30b634b21037bbb732b960991b604482015260640160405180910390fd5b60006200008d8482620002d5565b5060016200009c8382620002d5565b50600380546001600160a01b0319166001600160a01b0383169081179091556040516000907f8be0079c531659141344cd1fd0a4f28419497f9722a3daafe3b4186f6b6457e0908290a3505050620003a1565b634e487b7160e01b600052604160045260246000fd5b600082601f8301126200011757600080fd5b81516001600160401b0380821115620001345762000134620000ef565b604051601f8301601f19908116603f011681019082821181831017156200015f576200015f620000ef565b81604052838152602092508660208588010111156200017d57600080fd5b600091505b83821015620001a1578582018301518183018401529082019062000182565b6000602085830101528094505050505092915050565b600080600060608486031215620001cd57600080fd5b83516001600160401b0380821115620001e557600080fd5b620001f38783880162000105565b945060208601519150808211156200020a57600080fd5b50620002198682870162000105565b604086015190935090506001600160a01b03811681146200023957600080fd5b809150509250925092565b600181811c908216806200025957607f821691505b6020821081036200027a57634e487b7160e01b600052602260045260246000fd5b50919050565b601f821115620002d0576000816000526020600020601f850160051c81016020861015620002ab5750805b601f850160051c820191505b81811015620002cc57828155600101620002b7565b5050505b505050565b81516001600160401b03811115620002f157620002f1620000ef565b620003098162000302845462000244565b8462000280565b602080601f831160018114620003415760008415620003285750858301515b600019600386901b1c1916600185901b178555620002cc565b600085815260208120601f198616915b82811015620003725788860151825594840194600190910190840162000351565b5085821015620003915787850151600019600388901b60f8161c191681555b5050505050600190811b01905550565b6108ee80620003b16000396000f3fe608060405234801561001057600080fd5b50600436106100b45760003560e01c806370a082311161007157806370a08231146101535780638da5cb5b1461017357806395d89b411461019e578063a9059cbb146101a6578063dd62ed3e146101b9578063f2fde38b146101e457600080fd5b806306fdde03146100b9578063095ea7b3146100d757806318160ddd146100fa57806323b872dd14610111578063313ce5671461012457806340c10f191461013e575b600080fd5b6100c16101f7565b6040516100ce9190610737565b60405180910390f35b6100ea6100e53660046107a2565b610285565b60405190151581526020016100ce565b61010360025481565b6040519081526020016100ce565b6100ea61011f3660046107cc565b6102f2565b61012c601281565b60405160ff90911681526020016100ce565b61015161014c3660046107a2565b6103d6565b005b610103610161366004610808565b60046020526000908152604090205481565b600354610186906001600160a01b031681565b6040516001600160a01b0390911681526020016100ce565b6100c16104f0565b6100ea6101b43660046107a2565b6104fd565b6101036101c736600461082a565b600560209081526000928352604080842090915290825290205481565b6101516101f2366004610808565b610513565b600080546102049061085d565b80601f01602080910402602001604051908101604052809291908181526020018280546102309061085d565b801561027d5780601f106102525761010080835404028352916020019161027d565b820191906000526020600020905b81548152906001019060200180831161026057829003601f168201915b505050505081565b3360008181526005602090815260408083206001600160a01b038716808552925280832085905551919290917f8c5be1e5ebec7d5bd14f71427d1e84f3dd0314c0f7b2291e5b200ac8c7c3b925906102e09086815260200190565b60405180910390a35060015b92915050565b6001600160a01b0383166000908152600560209081526040808320338452909152812054828110156103605760405162461bcd60e51b8152602060048201526012602482015271105b1b1bddd85b98d948195e18d95959195960721b60448201526064015b60405180910390fd5b6001600160a01b038516600081815260056020908152604080832033808552908352928190208786039081905590519081529192917f8c5be1e5ebec7d5bd14f71427d1e84f3dd0314c0f7b2291e5b200ac8c7c3b925910160405180910390a36103cb8585856105fc565b506001949350505050565b6003546001600160a01b0316331461041d5760405162461bcd60e51b815260206004820152600a60248201526927b7363c9037bbb732b960b11b6044820152606401610357565b6001600160a01b0382166104675760405162461bcd60e51b8152602060048201526011602482015270125b9d985b1a59081c9958da5c1a595b9d607a1b6044820152606401610357565b80600260008282546104799190610897565b90915550506001600160a01b038216600090815260046020526040812080548392906104a6908490610897565b90915550506040518181526001600160a01b038316906000907fddf252ad1be2c89b69c2b068fc378daa952ba7f163c4a11628f55a4df523b3ef9060200160405180910390a35050565b600180546102049061085d565b600061050a3384846105fc565b50600192915050565b6003546001600160a01b0316331461055a5760405162461bcd60e51b815260206004820152600a60248201526927b7363c9037bbb732b960b11b6044820152606401610357565b6001600160a01b0381166105a05760405162461bcd60e51b815260206004820152600d60248201526c24b73b30b634b21037bbb732b960991b6044820152606401610357565b6003546040516001600160a01b038084169216907f8be0079c531659141344cd1fd0a4f28419497f9722a3daafe3b4186f6b6457e090600090a3600380546001600160a01b0319166001600160a01b0392909216919091179055565b6001600160a01b0382166106465760405162461bcd60e51b8152602060048201526011602482015270125b9d985b1a59081c9958da5c1a595b9d607a1b6044820152606401610357565b6001600160a01b038316600090815260046020526040902054818110156106a65760405162461bcd60e51b8152602060048201526014602482015273496e73756666696369656e742062616c616e636560601b6044820152606401610357565b6001600160a01b038085166000908152600460205260408082208585039055918516815290812080548492906106dd908490610897565b92505081905550826001600160a01b0316846001600160a01b03167fddf252ad1be2c89b69c2b068fc378daa952ba7f163c4a11628f55a4df523b3ef8460405161072991815260200190565b60405180910390a350505050565b60006020808352835180602085015260005b8181101561076557858101830151858201604001528201610749565b506000604082860101526040601f19601f8301168501019250505092915050565b80356001600160a01b038116811461079d57600080fd5b919050565b600080604083850312156107b557600080fd5b6107be83610786565b946020939093013593505050565b6000806000606084860312156107e157600080fd5b6107ea84610786565b92506107f860208501610786565b9150604084013590509250925092565b60006020828403121561081a57600080fd5b61082382610786565b9392505050565b6000806040838503121561083d57600080fd5b61084683610786565b915061085460208401610786565b90509250929050565b600181811c9082168061087157607f821691505b60208210810361089157634e487b7160e01b600052602260045260246000fd5b50919050565b808201808211156102ec57634e487b7160e01b600052601160045260246000fdfea26469706673582212204c234ed7865475e3abcd1c1a9645c8d186277183fb9261f45ee1b7e880355b0a64736f6c634300081800339b779b17422d0df92223018b32b4d1fa46e071723d6817e2486d003becc55f00a26469706673582212207e714f939b81f03122293967855e2b9c9d1e45138f981753bfd2df177e1e024664736f6c63430008180033",
  "linkReferences": {},
  "deployedLinkReferences": {}
}